Component: ARM Compiler 5.05 update 1 (build 106) Tool: armlink [4d0efa]

==============================================================================

Section Cross References

    stm32f0xx_it.o(i.SysTick_Handler) refers to stm32f0xx_hal.o(i.HAL_IncTick) for HAL_IncTick
    stm32f0xx_it.o(i.SysTick_Handler) refers to stm32f0xx_hal_cortex.o(i.HAL_SYSTICK_IRQHandler) for HAL_SYSTICK_IRQHandler
    stm32f0xx_it.o(i.USART2_IRQHandler) refers to trans_recieve_buff_control.o(i.Modbus_Master_Rece_Handler) for Modbus_Master_Rece_Handler
    stm32f0xx_it.o(i.USART2_IRQHandler) refers to stm32f0xx_hal_cortex.o(i.HAL_NVIC_ClearPendingIRQ) for HAL_NVIC_ClearPendingIRQ
    stm32f0xx_it.o(i.USART2_IRQHandler) refers to stm32f0xx_hal_uart.o(i.HAL_UART_IRQHandler) for HAL_UART_IRQHandler
    stm32f0xx_it.o(i.USART2_IRQHandler) refers to main.o(.bss) for huart2
    stm32f0xx_hal_msp.o(i.HAL_MspInit) refers to stm32f0xx_hal_cortex.o(i.HAL_NVIC_SetPriority) for HAL_NVIC_SetPriority
    stm32f0xx_hal_msp.o(i.HAL_UART_MspDeInit) refers to stm32f0xx_hal_gpio.o(i.HAL_GPIO_DeInit) for HAL_GPIO_DeInit
    stm32f0xx_hal_msp.o(i.HAL_UART_MspDeInit) refers to stm32f0xx_hal_cortex.o(i.HAL_NVIC_DisableIRQ) for HAL_NVIC_DisableIRQ
    stm32f0xx_hal_msp.o(i.HAL_UART_MspInit) refers to stm32f0xx_hal_gpio.o(i.HAL_GPIO_Init) for HAL_GPIO_Init
    stm32f0xx_hal_msp.o(i.HAL_UART_MspInit) refers to stm32f0xx_hal_cortex.o(i.HAL_NVIC_SetPriority) for HAL_NVIC_SetPriority
    stm32f0xx_hal_msp.o(i.HAL_UART_MspInit) refers to stm32f0xx_hal_cortex.o(i.HAL_NVIC_EnableIRQ) for HAL_NVIC_EnableIRQ
    main.o(i.MX_USART2_UART_Init) refers to stm32f0xx_hal_uart.o(i.HAL_UART_Init) for HAL_UART_Init
    main.o(i.MX_USART2_UART_Init) refers to main.o(.bss) for .bss
    main.o(i.SystemClock_Config) refers to stm32f0xx_hal_rcc.o(i.HAL_RCC_OscConfig) for HAL_RCC_OscConfig
    main.o(i.SystemClock_Config) refers to stm32f0xx_hal_rcc.o(i.HAL_RCC_ClockConfig) for HAL_RCC_ClockConfig
    main.o(i.SystemClock_Config) refers to stm32f0xx_hal_rcc.o(i.HAL_RCC_GetHCLKFreq) for HAL_RCC_GetHCLKFreq
    main.o(i.SystemClock_Config) refers to uidiv.o(.text) for __aeabi_uidivmod
==============================================================================

Removing Unused input sections from the image.

    Removing stm32f0xx_it.o(.rev16_text), (4 bytes).
    Removing stm32f0xx_it.o(.revsh_text), (4 bytes).
    Removing stm32f0xx_hal_msp.o(.rev16_text), (4 bytes).
    Removing stm32f0xx_hal_msp.o(.revsh_text), (4 bytes).
    Removing stm32f0xx_hal_msp.o(i.HAL_UART_MspDeInit), (48 bytes).
    Removing main.o(.rev16_text), (4 bytes).
    Removing main.o(.revsh_text), (4 bytes).
    Removing main.o(i._Error_Handler), (2 bytes).
    Removing ringbuffer.o(.rev16_text), (4 bytes).
    Removing ringbuffer.o(.revsh_text), (4 bytes).
    Removing ringbuffer.o(i.rbGetCount), (20 bytes).
    Removing ringbuffer.o(i.rbIsFull), (30 bytes).
    Removing modbus_master.o(.rev16_text), (4 bytes).
    Removing modbus_master.o(.revsh_text), (4 bytes).
    Removing modbus_master.o(i.ModbusMaster_available), (16 bytes).
    Removing modbus_master.o(i.ModbusMaster_beginTransmission), (16 bytes).
    Removing modbus_master.o(i.ModbusMaster_clearResponseBuffer), (24 bytes).
    Removing modbus_master.o(i.ModbusMaster_clearTransmitBuffer), (24 bytes).
==============================================================================

Image Symbol Table

    Local Symbols

    Symbol Name                              Value     Ov Type        Size  Object(Section)

    ../Drivers/STM32F0xx_HAL_Driver/Src/stm32f0xx_hal.c 0x00000000   Number         0  stm32f0xx_hal.o ABSOLUTE
    ../Drivers/STM32F0xx_HAL_Driver/Src/stm32f0xx_hal_cortex.c 0x00000000   Number         0  stm32f0xx_hal_cortex.o ABSOLUTE
    ../Drivers/STM32F0xx_HAL_Driver/Src/stm32f0xx_hal_dma.c 0x00000000   Number         0  stm32f0xx_hal_dma.o ABSOLUTE
    ../Drivers/STM32F0xx_HAL_Driver/Src/stm32f0xx_hal_flash.c 0x00000000   Number         0  stm32f0xx_hal_flash.o ABSOLUTE
    ../Drivers/STM32F0xx_HAL_Driver/Src/stm32f0xx_hal_flash_ex.c 0x00000000   Number         0  stm32f0xx_hal_flash_ex.o ABSOLUTE
    ../Drivers/STM32F0xx_HAL_Driver/Src/stm32f0xx_hal_gpio.c 0x00000000   Number         0  stm32f0xx_hal_gpio.o ABSOLUTE
    ../Drivers/STM32F0xx_HAL_Driver/Src/stm32f0xx_hal_i2c.c 0x00000000   Number         0  stm32f0xx_hal_i2c.o ABSOLUTE
    ../Drivers/STM32F0xx_HAL_Driver/Src/stm32f0xx_hal_i2c_ex.c 0x00000000   Number         0  stm32f0xx_hal_i2c_ex.o ABSOLUTE
    ../Drivers/STM32F0xx_HAL_Driver/Src/stm32f0xx_hal_pwr.c 0x00000000   Number         0  stm32f0xx_hal_pwr.o ABSOLUTE
    ../Drivers/STM32F0xx_HAL_Driver/Src/stm32f0xx_hal_pwr_ex.c 0x00000000   Number         0  stm32f0xx_hal_pwr_ex.o ABSOLUTE
    ../Drivers/STM32F0xx_HAL_Driver/Src/stm32f0xx_hal_rcc.c 0x00000000   Number         0  stm32f0xx_hal_rcc.o ABSOLUTE
    ../Drivers/STM32F0xx_HAL_Driver/Src/stm32f0xx_hal_rcc_ex.c 0x00000000   Number         0  stm32f0xx_hal_rcc_ex.o ABSOLUTE
    ../Drivers/STM32F0xx_HAL_Driver/Src/stm32f0xx_hal_tim.c 0x00000000   Number         0  stm32f0xx_hal_tim.o ABSOLUTE
    ../Drivers/STM32F0xx_HAL_Driver/Src/stm32f0xx_hal_tim_ex.c 0x00000000   Number         0  stm32f0xx_hal_tim_ex.o ABSOLUTE
    ../Drivers/STM32F0xx_HAL_Driver/Src/stm32f0xx_hal_uart.c 0x00000000   Number         0  stm32f0xx_hal_uart.o ABSOLUTE
    ../Drivers/STM32F0xx_HAL_Driver/Src/stm32f0xx_hal_uart_ex.c 0x00000000   Number         0  stm32f0xx_hal_uart_ex.o ABSOLUTE
    ../Src/main.c                            0x00000000   Number         0  main.o ABSOLUTE
    ../Src/stm32f0xx_hal_msp.c               0x00000000   Number         0  stm32f0xx_hal_msp.o ABSOLUTE
    ../Src/stm32f0xx_it.c                    0x00000000   Number         0  stm32f0xx_it.o ABSOLUTE
    ../Src/system_stm32f0xx.c                0x00000000   Number         0  system_stm32f0xx.o ABSOLUTE
    ../clib/microlib/division.c              0x00000000   Number         0  uidiv.o ABSOLUTE
    ../clib/microlib/division.c              0x00000000   Number         0  idiv.o ABSOLUTE
    ../clib/microlib/init/entry.s            0x00000000   Number         0  entry7a.o ABSOLUTE
    ../clib/microlib/init/entry.s            0x00000000   Number         0  entry10b.o ABSOLUTE
    ../clib/microlib/init/entry.s            0x00000000   Number         0  entry5.o ABSOLUTE
    ../clib/microlib/init/entry.s            0x00000000   Number         0  entry11b.o ABSOLUTE
    ../clib/microlib/init/entry.s            0x00000000   Number         0  entry11a.o ABSOLUTE
    ../clib/microlib/init/entry.s            0x00000000   Number         0  entry9b.o ABSOLUTE
    ../clib/microlib/init/entry.s            0x00000000   Number         0  entry9a.o ABSOLUTE
    ../clib/microlib/init/entry.s            0x00000000   Number         0  entry8b.o ABSOLUTE
    ../clib/microlib/init/entry.s            0x00000000   Number         0  entry8a.o ABSOLUTE
    ../clib/microlib/init/entry.s            0x00000000   Number         0  entry2.o ABSOLUTE
    ../clib/microlib/init/entry.s            0x00000000   Number         0  entry.o ABSOLUTE
    ../clib/microlib/init/entry.s            0x00000000   Number         0  entry10a.o ABSOLUTE
    ../clib/microlib/init/entry.s            0x00000000   Number         0  entry7b.o ABSOLUTE
    ../clib/microlib/longlong.c              0x00000000   Number         0  llushr.o ABSOLUTE
    ..\Drivers\STM32F0xx_HAL_Driver\Src\stm32f0xx_hal.c 0x00000000   Number         0  stm32f0xx_hal.o ABSOLUTE
    ..\Drivers\STM32F0xx_HAL_Driver\Src\stm32f0xx_hal_cortex.c 0x00000000   Number         0  stm32f0xx_hal_cortex.o ABSOLUTE
    ..\Drivers\STM32F0xx_HAL_Driver\Src\stm32f0xx_hal_dma.c 0x00000000   Number         0  stm32f0xx_hal_dma.o ABSOLUTE
    ..\Drivers\STM32F0xx_HAL_Driver\Src\stm32f0xx_hal_flash.c 0x00000000   Number         0  stm32f0xx_hal_flash.o ABSOLUTE
    ..\Drivers\STM32F0xx_HAL_Driver\Src\stm32f0xx_hal_flash_ex.c 0x00000000   Number         0  stm32f0xx_hal_flash_ex.o ABSOLUTE
    ..\Drivers\STM32F0xx_HAL_Driver\Src\stm32f0xx_hal_gpio.c 0x00000000   Number         0  stm32f0xx_hal_gpio.o ABSOLUTE
    ..\Drivers\STM32F0xx_HAL_Driver\Src\stm32f0xx_hal_i2c.c 0x00000000   Number         0  stm32f0xx_hal_i2c.o ABSOLUTE
    ..\Drivers\STM32F0xx_HAL_Driver\Src\stm32f0xx_hal_i2c_ex.c 0x00000000   Number         0  stm32f0xx_hal_i2c_ex.o ABSOLUTE
    ..\Drivers\STM32F0xx_HAL_Driver\Src\stm32f0xx_hal_pwr.c 0x00000000   Number         0  stm32f0xx_hal_pwr.o ABSOLUTE
    ..\Drivers\STM32F0xx_HAL_Driver\Src\stm32f0xx_hal_pwr_ex.c 0x00000000   Number         0  stm32f0xx_hal_pwr_ex.o ABSOLUTE
    ..\Drivers\STM32F0xx_HAL_Driver\Src\stm32f0xx_hal_rcc.c 0x00000000   Number         0  stm32f0xx_hal_rcc.o ABSOLUTE
    ..\Drivers\STM32F0xx_HAL_Driver\Src\stm32f0xx_hal_rcc_ex.c 0x00000000   Number         0  stm32f0xx_hal_rcc_ex.o ABSOLUTE
    ..\Drivers\STM32F0xx_HAL_Driver\Src\stm32f0xx_hal_tim.c 0x00000000   Number         0  stm32f0xx_hal_tim.o ABSOLUTE
    ..\Drivers\STM32F0xx_HAL_Driver\Src\stm32f0xx_hal_tim_ex.c 0x00000000   Number         0  stm32f0xx_hal_tim_ex.o ABSOLUTE
    ..\Drivers\STM32F0xx_HAL_Driver\Src\stm32f0xx_hal_uart.c 0x00000000   Number         0  stm32f0xx_hal_uart.o ABSOLUTE
    ..\Drivers\STM32F0xx_HAL_Driver\Src\stm32f0xx_hal_uart_ex.c 0x00000000   Number         0  stm32f0xx_hal_uart_ex.o ABSOLUTE
    ..\Modbus_Master\modbus_master.c         0x00000000   Number         0  modbus_master.o ABSOLUTE
    ..\Modbus_Master\ringbuffer.c            0x00000000   Number         0  ringbuffer.o ABSOLUTE
    ..\Modbus_Master\trans_recieve_buff_control.c 0x00000000   Number         0  trans_recieve_buff_control.o ABSOLUTE
    ..\Src\main.c                            0x00000000   Number         0  main.o ABSOLUTE
    ..\Src\stm32f0xx_hal_msp.c               0x00000000   Number         0  stm32f0xx_hal_msp.o ABSOLUTE
    ..\Src\stm32f0xx_it.c                    0x00000000   Number         0  stm32f0xx_it.o ABSOLUTE
    ..\Src\system_stm32f0xx.c                0x00000000   Number         0  system_stm32f0xx.o ABSOLUTE
    ..\\Modbus_Master\\modbus_master.c       0x00000000   Number         0  modbus_master.o ABSOLUTE
    ..\\Modbus_Master\\ringbuffer.c          0x00000000   Number         0  ringbuffer.o ABSOLUTE
    ..\\Modbus_Master\\trans_recieve_buff_control.c 0x00000000   Number         0  trans_recieve_buff_control.o ABSOLUTE
    dc.s                                     0x00000000   Number         0  dc.o ABSOLUTE
    handlers.s                               0x00000000   Number         0  handlers.o ABSOLUTE
    init.s                                   0x00000000   Number         0  init.o ABSOLUTE
    startup_stm32f042x6.s                    0x00000000   Number         0  startup_stm32f042x6.o ABSOLUTE
    RESET                                    0x08000000   Section      192  startup_stm32f042x6.o(RESET)
    .ARM.Collect$$$$00000000                 0x080000c0   Section        0  entry.o(.ARM.Collect$$$$00000000)
    .ARM.Collect$$$$00000001                 0x080000c0   Section        4  entry2.o(.ARM.Collect$$$$00000001)
    .ARM.Collect$$$$00000004                 0x080000c4   Section        4  entry5.o(.ARM.Collect$$$$00000004)
    .ARM.Collect$$$$00000008                 0x080000c8   Section        0  entry7b.o(.ARM.Collect$$$$00000008)
    .ARM.Collect$$$$0000000A                 0x080000c8   Section        0  entry8b.o(.ARM.Collect$$$$0000000A)
    .ARM.Collect$$$$0000000B                 0x080000c8   Section        8  entry9a.o(.ARM.Collect$$$$0000000B)
    .ARM.Collect$$$$0000000D                 0x080000d0   Section        0  entry10a.o(.ARM.Collect$$$$0000000D)
    .ARM.Collect$$$$0000000F                 0x080000d0   Section        0  entry11a.o(.ARM.Collect$$$$0000000F)
    .ARM.Collect$$$$00002712                 0x080000d0   Section        4  entry2.o(.ARM.Collect$$$$00002712)
    __lit__00000000                          0x080000d0   Data           4  entry2.o(.ARM.Collect$$$$00002712)
    .text                                    0x080000d4   Section       88  startup_stm32f042x6.o(.text)
    .text                                    0x0800012c   Section        0  uidiv.o(.text)
    .text                                    0x08000158   Section       36  init.o(.text)
    i.HAL_DMA_Abort_IT                       0x0800017c   Section        0  stm32f0xx_hal_dma.o(i.HAL_DMA_Abort_IT)
    i.HAL_Delay                              0x080001c4   Section        0  stm32f0xx_hal.o(i.HAL_Delay)
    i.HAL_GPIO_Init                          0x080001e0   Section        0  stm32f0xx_hal_gpio.o(i.HAL_GPIO_Init)
    i.HAL_GetTick                            0x0800031c   Section        0  stm32f0xx_hal.o(i.HAL_GetTick)
    i.HAL_IncTick                            0x08000328   Section        0  stm32f0xx_hal.o(i.HAL_IncTick)
    i.HAL_Init                               0x08000338   Section        0  stm32f0xx_hal.o(i.HAL_Init)
    i.HAL_InitTick                           0x08000358   Section        0  stm32f0xx_hal.o(i.HAL_InitTick)
    i.HAL_MspInit                            0x0800037c   Section        0  stm32f0xx_hal_msp.o(i.HAL_MspInit)
    i.HAL_NVIC_ClearPendingIRQ               0x080003b4   Section        0  stm32f0xx_hal_cortex.o(i.HAL_NVIC_ClearPendingIRQ)
    i.HAL_NVIC_EnableIRQ                     0x080003c8   Section        0  stm32f0xx_hal_cortex.o(i.HAL_NVIC_EnableIRQ)
    i.HAL_NVIC_SetPriority                   0x080003dc   Section        0  stm32f0xx_hal_cortex.o(i.HAL_NVIC_SetPriority)
    i.HAL_RCC_ClockConfig                    0x080003e4   Section        0  stm32f0xx_hal_rcc.o(i.HAL_RCC_ClockConfig)
    i.HAL_RCC_GetHCLKFreq                    0x08000538   Section        0  stm32f0xx_hal_rcc.o(i.HAL_RCC_GetHCLKFreq)
    i.HAL_RCC_GetPCLK1Freq                   0x08000544   Section        0  stm32f0xx_hal_rcc.o(i.HAL_RCC_GetPCLK1Freq)
    i.HAL_RCC_GetSysClockFreq                0x08000564   Section        0  stm32f0xx_hal_rcc.o(i.HAL_RCC_GetSysClockFreq)
    i.HAL_RCC_OscConfig                      0x080005ec   Section        0  stm32f0xx_hal_rcc.o(i.HAL_RCC_OscConfig)
    i.HAL_SYSTICK_CLKSourceConfig            0x080009c4   Section        0  stm32f0xx_hal_cortex.o(i.HAL_SYSTICK_CLKSourceConfig)
    i.HAL_SYSTICK_Callback                   0x080009dc   Section        0  stm32f0xx_hal_cortex.o(i.HAL_SYSTICK_Callback)
    i.HAL_SYSTICK_Config                     0x080009e0   Section        0  stm32f0xx_hal_cortex.o(i.HAL_SYSTICK_Config)
    i.HAL_SYSTICK_IRQHandler                 0x08000a10   Section        0  stm32f0xx_hal_cortex.o(i.HAL_SYSTICK_IRQHandler)
    i.HAL_UARTEx_WakeupCallback              0x08000a18   Section        0  stm32f0xx_hal_uart_ex.o(i.HAL_UARTEx_WakeupCallback)
    i.HAL_UART_ErrorCallback                 0x08000a1a   Section        0  stm32f0xx_hal_uart.o(i.HAL_UART_ErrorCallback)
    i.HAL_UART_IRQHandler                    0x08000a1c   Section        0  stm32f0xx_hal_uart.o(i.HAL_UART_IRQHandler)
    i.HAL_UART_Init                          0x08000b50   Section        0  stm32f0xx_hal_uart.o(i.HAL_UART_Init)
    i.HAL_UART_MspInit                       0x08000bbc   Section        0  stm32f0xx_hal_msp.o(i.HAL_UART_MspInit)
    i.HAL_UART_Receive                       0x08000c14   Section        0  stm32f0xx_hal_uart.o(i.HAL_UART_Receive)
    i.HAL_UART_RxCpltCallback                0x08000d14   Section        0  stm32f0xx_hal_uart.o(i.HAL_UART_RxCpltCallback)
    i.HAL_UART_Transmit                      0x08000d16   Section        0  stm32f0xx_hal_uart.o(i.HAL_UART_Transmit)
    i.HAL_UART_TxCpltCallback                0x08000dde   Section        0  stm32f0xx_hal_uart.o(i.HAL_UART_TxCpltCallback)
    i.HardFault_Handler                      0x08000de0   Section        0  stm32f0xx_it.o(i.HardFault_Handler)
    i.MX_USART2_UART_Init                    0x08000de4   Section        0  main.o(i.MX_USART2_UART_Init)
    MX_USART2_UART_Init                      0x08000de5   Thumb Code    58  main.o(i.MX_USART2_UART_Init)
    i.ModbusMaster_ModbusMasterTransaction   0x08000e28   Section        0  modbus_master.o(i.ModbusMaster_ModbusMasterTransaction)
    i.ModbusMaster_begin                     0x0800113c   Section        0  modbus_master.o(i.ModbusMaster_begin)
    i.ModbusMaster_getResponseBuffer         0x08001150   Section        0  modbus_master.o(i.ModbusMaster_getResponseBuffer)
    i.ModbusMaster_readInputRegisters        0x08001168   Section        0  modbus_master.o(i.ModbusMaster_readInputRegisters)
    i.Modbus_Master_GetByte                  0x08001180   Section        0  trans_recieve_buff_control.o(i.Modbus_Master_GetByte)
    i.Modbus_Master_Millis                   0x0800119c   Section        0  trans_recieve_buff_control.o(i.Modbus_Master_Millis)
    i.Modbus_Master_RB_Initialize            0x080011a4   Section        0  trans_recieve_buff_control.o(i.Modbus_Master_RB_Initialize)
    i.Modbus_Master_Read                     0x080011bc   Section        0  trans_recieve_buff_control.o(i.Modbus_Master_Read)
    i.Modbus_Master_Rece_Available           0x080011dc   Section        0  trans_recieve_buff_control.o(i.Modbus_Master_Rece_Available)
    i.Modbus_Master_Rece_Flush               0x08001204   Section        0  trans_recieve_buff_control.o(i.Modbus_Master_Rece_Flush)
    i.Modbus_Master_Rece_Handler             0x08001214   Section        0  trans_recieve_buff_control.o(i.Modbus_Master_Rece_Handler)
    i.Modbus_Master_Write                    0x08001230   Section        0  trans_recieve_buff_control.o(i.Modbus_Master_Write)
    i.NMI_Handler                            0x0800124c   Section        0  stm32f0xx_it.o(i.NMI_Handler)
    i.NVIC_SetPriority                       0x08001250   Section        0  stm32f0xx_hal_cortex.o(i.NVIC_SetPriority)
    NVIC_SetPriority                         0x08001251   Thumb Code    60  stm32f0xx_hal_cortex.o(i.NVIC_SetPriority)
    i.PendSV_Handler                         0x08001294   Section        0  stm32f0xx_it.o(i.PendSV_Handler)
    i.SVC_Handler                            0x08001296   Section        0  stm32f0xx_it.o(i.SVC_Handler)
    i.SysTick_Handler                        0x08001298   Section        0  stm32f0xx_it.o(i.SysTick_Handler)
    i.SystemClock_Config                     0x080012a4   Section        0  main.o(i.SystemClock_Config)
    i.SystemInit                             0x08001300   Section        0  system_stm32f0xx.o(i.SystemInit)
    i.UART_AdvFeatureConfig                  0x0800135c   Section        0  stm32f0xx_hal_uart.o(i.UART_AdvFeatureConfig)
    i.UART_CheckIdleState                    0x08001428   Section        0  stm32f0xx_hal_uart.o(i.UART_CheckIdleState)
    i.UART_DMAAbortOnError                   0x08001490   Section        0  stm32f0xx_hal_uart.o(i.UART_DMAAbortOnError)
    UART_DMAAbortOnError                     0x08001491   Thumb Code    20  stm32f0xx_hal_uart.o(i.UART_DMAAbortOnError)
    i.UART_EndRxTransfer                     0x080014a4   Section        0  stm32f0xx_hal_uart.o(i.UART_EndRxTransfer)
    UART_EndRxTransfer                       0x080014a5   Thumb Code    30  stm32f0xx_hal_uart.o(i.UART_EndRxTransfer)
    i.UART_EndTransmit_IT                    0x080014c2   Section        0  stm32f0xx_hal_uart.o(i.UART_EndTransmit_IT)
    i.UART_Receive_IT                        0x080014dc   Section        0  stm32f0xx_hal_uart.o(i.UART_Receive_IT)
    i.UART_SetConfig                         0x08001558   Section        0  stm32f0xx_hal_uart.o(i.UART_SetConfig)
    i.UART_Transmit_IT                       0x08001688   Section        0  stm32f0xx_hal_uart.o(i.UART_Transmit_IT)
    i.UART_WaitOnFlagUntilTimeout            0x080016ee   Section        0  stm32f0xx_hal_uart.o(i.UART_WaitOnFlagUntilTimeout)
    i.USART2_IRQHandler                      0x08001750   Section        0  stm32f0xx_it.o(i.USART2_IRQHandler)
    i.__ARM_common_switch8                   0x08001774   Section        0  modbus_master.o(i.__ARM_common_switch8)
    i.__scatterload_copy                     0x0800178e   Section       14  handlers.o(i.__scatterload_copy)
    i.__scatterload_null                     0x0800179c   Section        2  handlers.o(i.__scatterload_null)
    i.__scatterload_zeroinit                 0x0800179e   Section       14  handlers.o(i.__scatterload_zeroinit)
    i.crc16_update                           0x080017ac   Section        0  modbus_master.o(i.crc16_update)
    crc16_update                             0x080017ad   Thumb Code    26  modbus_master.o(i.crc16_update)
    i.main                                   0x080017cc   Section        0  main.o(i.main)
    i.rbClear                                0x08001820   Section        0  ringbuffer.o(i.rbClear)
    i.rbInitialize                           0x0800182c   Section        0  ringbuffer.o(i.rbInitialize)
    i.rbIsEmpty                              0x0800183c   Section        0  ringbuffer.o(i.rbIsEmpty)
    i.rbPop                                  0x0800184c   Section        0  ringbuffer.o(i.rbPop)
    i.rbPush                                 0x0800186e   Section        0  ringbuffer.o(i.rbPush)
    .constdata                               0x08001892   Section       16  system_stm32f0xx.o(.constdata)
    .constdata                               0x080018a2   Section        8  system_stm32f0xx.o(.constdata)
    .data                                    0x20000000   Section       14  modbus_master.o(.data)
    .data                                    0x20000010   Section        4  stm32f0xx_hal.o(.data)
    .data                                    0x20000014   Section        4  system_stm32f0xx.o(.data)
    .bss                                     0x20000018   Section      112  main.o(.bss)
    .bss                                     0x20000088   Section      256  modbus_master.o(.bss)
    .bss                                     0x20000188   Section      220  trans_recieve_buff_control.o(.bss)
    STACK                                    0x20000268   Section     1024  startup_stm32f042x6.o(STACK)

    Global Symbols

    Symbol Name                              Value     Ov Type        Size  Object(Section)

    BuildAttributes$$THM_ISAv3M$S$PE$A:L22$X:L11$S22$IEEE1$IW$USESV6$~STKCKD$USESV7$~SHL$OSPACE$EBA8$MICROLIB$REQ8$PRES8$EABIv2 0x00000000   Number         0  anon$$obj.o ABSOLUTE
    __ARM_use_no_argv                        0x00000000   Number         0  main.o ABSOLUTE
    __cpp_initialize__aeabi_                  - Undefined Weak Reference
    __cxa_finalize                            - Undefined Weak Reference
    __decompress                              - Undefined Weak Reference
    _clock_init                               - Undefined Weak Reference
    _microlib_exit                            - Undefined Weak Reference
    __Vectors_Size                           0x000000c0   Number         0  startup_stm32f042x6.o ABSOLUTE
    __Vectors                                0x08000000   Data           4  startup_stm32f042x6.o(RESET)
    __Vectors_End                            0x080000c0   Data           0  startup_stm32f042x6.o(RESET)
    __main                                   0x080000c1   Thumb Code     0  entry.o(.ARM.Collect$$$$00000000)
    _main_stk                                0x080000c1   Thumb Code     0  entry2.o(.ARM.Collect$$$$00000001)
    _main_scatterload                        0x080000c5   Thumb Code     0  entry5.o(.ARM.Collect$$$$00000004)
    __main_after_scatterload                 0x080000c9   Thumb Code     0  entry5.o(.ARM.Collect$$$$00000004)
    _main_clock                              0x080000c9   Thumb Code     0  entry7b.o(.ARM.Collect$$$$00000008)
    _main_cpp_init                           0x080000c9   Thumb Code     0  entry8b.o(.ARM.Collect$$$$0000000A)
    _main_init                               0x080000c9   Thumb Code     0  entry9a.o(.ARM.Collect$$$$0000000B)
    __rt_final_cpp                           0x080000d1   Thumb Code     0  entry10a.o(.ARM.Collect$$$$0000000D)
    __rt_final_exit                          0x080000d1   Thumb Code     0  entry11a.o(.ARM.Collect$$$$0000000F)
    Reset_Handler                            0x080000d5   Thumb Code    38  startup_stm32f042x6.o(.text)
    ADC1_IRQHandler                          0x08000105   Thumb Code     0  startup_stm32f042x6.o(.text)
    CEC_CAN_IRQHandler                       0x08000105   Thumb Code     0  startup_stm32f042x6.o(.text)
    DMA1_Channel1_IRQHandler                 0x08000105   Thumb Code     0  startup_stm32f042x6.o(.text)
    DMA1_Channel2_3_IRQHandler               0x08000105   Thumb Code     0  startup_stm32f042x6.o(.text)
    DMA1_Channel4_5_IRQHandler               0x08000105   Thumb Code     0  startup_stm32f042x6.o(.text)
    EXTI0_1_IRQHandler                       0x08000105   Thumb Code     0  startup_stm32f042x6.o(.text)
    EXTI2_3_IRQHandler                       0x08000105   Thumb Code     0  startup_stm32f042x6.o(.text)
    EXTI4_15_IRQHandler                      0x08000105   Thumb Code     0  startup_stm32f042x6.o(.text)
    FLASH_IRQHandler                         0x08000105   Thumb Code     0  startup_stm32f042x6.o(.text)
    I2C1_IRQHandler                          0x08000105   Thumb Code     0  startup_stm32f042x6.o(.text)
    PVD_VDDIO2_IRQHandler                    0x08000105   Thumb Code     0  startup_stm32f042x6.o(.text)
    RCC_CRS_IRQHandler                       0x08000105   Thumb Code     0  startup_stm32f042x6.o(.text)
    RTC_IRQHandler                           0x08000105   Thumb Code     0  startup_stm32f042x6.o(.text)
    SPI1_IRQHandler                          0x08000105   Thumb Code     0  startup_stm32f042x6.o(.text)
    SPI2_IRQHandler                          0x08000105   Thumb Code     0  startup_stm32f042x6.o(.text)
    TIM14_IRQHandler                         0x08000105   Thumb Code     0  startup_stm32f042x6.o(.text)
    TIM16_IRQHandler                         0x08000105   Thumb Code     0  startup_stm32f042x6.o(.text)
    TIM17_IRQHandler                         0x08000105   Thumb Code     0  startup_stm32f042x6.o(.text)
    TIM1_BRK_UP_TRG_COM_IRQHandler           0x08000105   Thumb Code     0  startup_stm32f042x6.o(.text)
    TIM1_CC_IRQHandler                       0x08000105   Thumb Code     0  startup_stm32f042x6.o(.text)
    TIM2_IRQHandler                          0x08000105   Thumb Code     0  startup_stm32f042x6.o(.text)
    TIM3_IRQHandler                          0x08000105   Thumb Code     0  startup_stm32f042x6.o(.text)
    TSC_IRQHandler                           0x08000105   Thumb Code     0  startup_stm32f042x6.o(.text)
    USART1_IRQHandler                        0x08000105   Thumb Code     0  startup_stm32f042x6.o(.text)
    USB_IRQHandler                           0x08000105   Thumb Code     0  startup_stm32f042x6.o(.text)
    WWDG_IRQHandler                          0x08000105   Thumb Code     0  startup_stm32f042x6.o(.text)
    __aeabi_uidiv                            0x0800012d   Thumb Code     0  uidiv.o(.text)
    __aeabi_uidivmod                         0x0800012d   Thumb Code    44  uidiv.o(.text)
    __scatterload                            0x08000159   Thumb Code    28  init.o(.text)
    __scatterload_rt2                        0x08000159   Thumb Code     0  init.o(.text)
    HAL_DMA_Abort_IT                         0x0800017d   Thumb Code    72  stm32f0xx_hal_dma.o(i.HAL_DMA_Abort_IT)
    HAL_Delay                                0x080001c5   Thumb Code    28  stm32f0xx_hal.o(i.HAL_Delay)
    HAL_GPIO_Init                            0x080001e1   Thumb Code   294  stm32f0xx_hal_gpio.o(i.HAL_GPIO_Init)
    HAL_GetTick                              0x0800031d   Thumb Code     6  stm32f0xx_hal.o(i.HAL_GetTick)
    HAL_IncTick                              0x08000329   Thumb Code    10  stm32f0xx_hal.o(i.HAL_IncTick)
    HAL_Init                                 0x08000339   Thumb Code    26  stm32f0xx_hal.o(i.HAL_Init)
    HAL_InitTick                             0x08000359   Thumb Code    34  stm32f0xx_hal.o(i.HAL_InitTick)
    HAL_MspInit                              0x0800037d   Thumb Code    50  stm32f0xx_hal_msp.o(i.HAL_MspInit)
    HAL_NVIC_ClearPendingIRQ                 0x080003b5   Thumb Code    14  stm32f0xx_hal_cortex.o(i.HAL_NVIC_ClearPendingIRQ)
    HAL_NVIC_EnableIRQ                       0x080003c9   Thumb Code    14  stm32f0xx_hal_cortex.o(i.HAL_NVIC_EnableIRQ)
    HAL_NVIC_SetPriority                     0x080003dd   Thumb Code     8  stm32f0xx_hal_cortex.o(i.HAL_NVIC_SetPriority)
    HAL_RCC_ClockConfig                      0x080003e5   Thumb Code   320  stm32f0xx_hal_rcc.o(i.HAL_RCC_ClockConfig)
    HAL_RCC_GetHCLKFreq                      0x08000539   Thumb Code     6  stm32f0xx_hal_rcc.o(i.HAL_RCC_GetHCLKFreq)
    HAL_RCC_GetPCLK1Freq                     0x08000545   Thumb Code    20  stm32f0xx_hal_rcc.o(i.HAL_RCC_GetPCLK1Freq)
    HAL_RCC_GetSysClockFreq                  0x08000565   Thumb Code    90  stm32f0xx_hal_rcc.o(i.HAL_RCC_GetSysClockFreq)
    HAL_RCC_OscConfig                        0x080005ed   Thumb Code   966  stm32f0xx_hal_rcc.o(i.HAL_RCC_OscConfig)
    HAL_SYSTICK_CLKSourceConfig              0x080009c5   Thumb Code    20  stm32f0xx_hal_cortex.o(i.HAL_SYSTICK_CLKSourceConfig)
    HAL_SYSTICK_Callback                     0x080009dd   Thumb Code     2  stm32f0xx_hal_cortex.o(i.HAL_SYSTICK_Callback)
    HAL_SYSTICK_Config                       0x080009e1   Thumb Code    38  stm32f0xx_hal_cortex.o(i.HAL_SYSTICK_Config)
    HAL_SYSTICK_IRQHandler                   0x08000a11   Thumb Code     8  stm32f0xx_hal_cortex.o(i.HAL_SYSTICK_IRQHandler)
    HAL_UARTEx_WakeupCallback                0x08000a19   Thumb Code     2  stm32f0xx_hal_uart_ex.o(i.HAL_UARTEx_WakeupCallback)
    HAL_UART_ErrorCallback                   0x08000a1b   Thumb Code     2  stm32f0xx_hal_uart.o(i.HAL_UART_ErrorCallback)
    HAL_UART_IRQHandler                      0x08000a1d   Thumb Code   304  stm32f0xx_hal_uart.o(i.HAL_UART_IRQHandler)
    HAL_UART_Init                            0x08000b51   Thumb Code   108  stm32f0xx_hal_uart.o(i.HAL_UART_Init)
    HAL_UART_MspInit                         0x08000bbd   Thumb Code    78  stm32f0xx_hal_msp.o(i.HAL_UART_MspInit)
    HAL_UART_Receive                         0x08000c15   Thumb Code   250  stm32f0xx_hal_uart.o(i.HAL_UART_Receive)
    HAL_UART_RxCpltCallback                  0x08000d15   Thumb Code     2  stm32f0xx_hal_uart.o(i.HAL_UART_RxCpltCallback)
    HAL_UART_Transmit                        0x08000d17   Thumb Code   200  stm32f0xx_hal_uart.o(i.HAL_UART_Transmit)
    HAL_UART_TxCpltCallback                  0x08000ddf   Thumb Code     2  stm32f0xx_hal_uart.o(i.HAL_UART_TxCpltCallback)
    HardFault_Handler                        0x08000de1   Thumb Code     2  stm32f0xx_it.o(i.HardFault_Handler)
    ModbusMaster_ModbusMasterTransaction     0x08000e29   Thumb Code   774  modbus_master.o(i.ModbusMaster_ModbusMasterTransaction)
    ModbusMaster_begin                       0x0800113d   Thumb Code    16  modbus_master.o(i.ModbusMaster_begin)
    ModbusMaster_getResponseBuffer           0x08001151   Thumb Code    16  modbus_master.o(i.ModbusMaster_getResponseBuffer)
    ModbusMaster_readInputRegisters          0x08001169   Thumb Code    18  modbus_master.o(i.ModbusMaster_readInputRegisters)
    Modbus_Master_GetByte                    0x08001181   Thumb Code    22  trans_recieve_buff_control.o(i.Modbus_Master_GetByte)
    Modbus_Master_Millis                     0x0800119d   Thumb Code     8  trans_recieve_buff_control.o(i.Modbus_Master_Millis)
    Modbus_Master_RB_Initialize              0x080011a5   Thumb Code    18  trans_recieve_buff_control.o(i.Modbus_Master_RB_Initialize)
    Modbus_Master_Read                       0x080011bd   Thumb Code    26  trans_recieve_buff_control.o(i.Modbus_Master_Read)
    Modbus_Master_Rece_Available             0x080011dd   Thumb Code    34  trans_recieve_buff_control.o(i.Modbus_Master_Rece_Available)
    Modbus_Master_Rece_Flush                 0x08001205   Thumb Code    10  trans_recieve_buff_control.o(i.Modbus_Master_Rece_Flush)
    Modbus_Master_Rece_Handler               0x08001215   Thumb Code    24  trans_recieve_buff_control.o(i.Modbus_Master_Rece_Handler)
    Modbus_Master_Write                      0x08001231   Thumb Code    22  trans_recieve_buff_control.o(i.Modbus_Master_Write)
    NMI_Handler                              0x0800124d   Thumb Code     2  stm32f0xx_it.o(i.NMI_Handler)
    PendSV_Handler                           0x08001295   Thumb Code     2  stm32f0xx_it.o(i.PendSV_Handler)
    SVC_Handler                              0x08001297   Thumb Code     2  stm32f0xx_it.o(i.SVC_Handler)
    SysTick_Handler                          0x08001299   Thumb Code    12  stm32f0xx_it.o(i.SysTick_Handler)
    SystemClock_Config                       0x080012a5   Thumb Code    90  main.o(i.SystemClock_Config)
    SystemInit                               0x08001301   Thumb Code    78  system_stm32f0xx.o(i.SystemInit)
    UART_AdvFeatureConfig                    0x0800135d   Thumb Code   202  stm32f0xx_hal_uart.o(i.UART_AdvFeatureConfig)
    UART_CheckIdleState                      0x08001429   Thumb Code    96  stm32f0xx_hal_uart.o(i.UART_CheckIdleState)
    UART_EndTransmit_IT                      0x080014c3   Thumb Code    26  stm32f0xx_hal_uart.o(i.UART_EndTransmit_IT)
    UART_Receive_IT                          0x080014dd   Thumb Code   122  stm32f0xx_hal_uart.o(i.UART_Receive_IT)
    UART_SetConfig                           0x08001559   Thumb Code   280  stm32f0xx_hal_uart.o(i.UART_SetConfig)
    UART_Transmit_IT                         0x08001689   Thumb Code   102  stm32f0xx_hal_uart.o(i.UART_Transmit_IT)
    UART_WaitOnFlagUntilTimeout              0x080016ef   Thumb Code    98  stm32f0xx_hal_uart.o(i.UART_WaitOnFlagUntilTimeout)
    USART2_IRQHandler                        0x08001751   Thumb Code    30  stm32f0xx_it.o(i.USART2_IRQHandler)
    __ARM_common_switch8                     0x08001775   Thumb Code    26  modbus_master.o(i.__ARM_common_switch8)
    __scatterload_copy                       0x0800178f   Thumb Code    14  handlers.o(i.__scatterload_copy)
    __scatterload_null                       0x0800179d   Thumb Code     2  handlers.o(i.__scatterload_null)
    __scatterload_zeroinit                   0x0800179f   Thumb Code    14  handlers.o(i.__scatterload_zeroinit)
    main                                     0x080017cd   Thumb Code    80  main.o(i.main)
    rbClear                                  0x08001821   Thumb Code    12  ringbuffer.o(i.rbClear)
    rbInitialize                             0x0800182d   Thumb Code    16  ringbuffer.o(i.rbInitialize)
    rbIsEmpty                                0x0800183d   Thumb Code    16  ringbuffer.o(i.rbIsEmpty)
    rbPop                                    0x0800184d   Thumb Code    34  ringbuffer.o(i.rbPop)
    rbPush                                   0x0800186f   Thumb Code    36  ringbuffer.o(i.rbPush)
    AHBPrescTable                            0x08001892   Data          16  system_stm32f0xx.o(.constdata)
    APBPrescTable                            0x080018a2   Data           8  system_stm32f0xx.o(.constdata)
    Region$$Table$$Base                      0x080018ac   Number         0  anon$$obj.o(Region$$Table)
    Region$$Table$$Limit                     0x080018cc   Number         0  anon$$obj.o(Region$$Table)
    _u8MBSlave                               0x20000000   Data           1  modbus_master.o(.data)
    _u8TransmitBufferIndex                   0x20000001   Data           1  modbus_master.o(.data)
    _u8ResponseBufferIndex                   0x20000002   Data           1  modbus_master.o(.data)
    _u8ResponseBufferLength                  0x20000003   Data           1  modbus_master.o(.data)
    _u16ReadAddress                          0x20000004   Data           2  modbus_master.o(.data)
    _u16ReadQty                              0x20000006   Data           2  modbus_master.o(.data)
    _u16WriteAddress                         0x20000008   Data           2  modbus_master.o(.data)
    _u16WriteQty                             0x2000000a   Data           2  modbus_master.o(.data)
    u16TransmitBufferLength                  0x2000000c   Data           2  modbus_master.o(.data)
    uwTick                                   0x20000010   Data           4  stm32f0xx_hal.o(.data)
    SystemCoreClock                          0x20000014   Data           4  system_stm32f0xx.o(.data)
    huart2                                   0x20000018   Data         112  main.o(.bss)
    _u16ResponseBuffer                       0x20000088   Data         128  modbus_master.o(.bss)
    _u16TransmitBuffer                       0x20000108   Data         128  modbus_master.o(.bss)
    m_Modbus_Master_RX_RingBuff              0x20000188   Data          20  trans_recieve_buff_control.o(.bss)
    m_Modbus_Master_RX_Buff                  0x2000019c   Data         200  trans_recieve_buff_control.o(.bss)
    __initial_sp                             0x20000668   Data           0  startup_stm32f042x6.o(STACK)



==============================================================================

Memory Map of the image

  Image Entry point : 0x080000c1

  Load Region LR_IROM1 (Base: 0x08000000, Size: 0x000018e4, Max: 0x00008000, ABSOLUTE)

    Execution Region ER_IROM1 (Base: 0x08000000, Size: 0x000018cc, Max: 0x00008000, ABSOLUTE)

    Base Addr    Size         Type   Attr      Idx    E Section Name        Object

    0x08000000   0x000000c0   Data   RO          537    RESET               startup_stm32f042x6.o
    0x080000c0   0x00000000   Code   RO         2369  * .ARM.Collect$$$$00000000  mc_p.l(entry.o)
    0x080000c0   0x00000004   Code   RO         2378    .ARM.Collect$$$$00000001  mc_p.l(entry2.o)
    0x080000c4   0x00000004   Code   RO         2381    .ARM.Collect$$$$00000004  mc_p.l(entry5.o)
    0x080000c8   0x00000000   Code   RO         2383    .ARM.Collect$$$$00000008  mc_p.l(entry7b.o)
    0x080000c8   0x00000000   Code   RO         2385    .ARM.Collect$$$$0000000A  mc_p.l(entry8b.o)
    0x080000c8   0x00000008   Code   RO         2386    .ARM.Collect$$$$0000000B  mc_p.l(entry9a.o)
    0x080000d0   0x00000000   Code   RO         2388    .ARM.Collect$$$$0000000D  mc_p.l(entry10a.o)
    0x080000d0   0x00000000   Code   RO         2390    .ARM.Collect$$$$0000000F  mc_p.l(entry11a.o)
    0x080000d0   0x00000004   Code   RO         2379    .ARM.Collect$$$$00002712  mc_p.l(entry2.o)
    0x080000d4   0x00000058   Code   RO          538    .text               startup_stm32f042x6.o
    0x0800012c   0x0000002c   Code   RO         2372    .text               mc_p.l(uidiv.o)
    0x08000158   0x00000024   Code   RO         2392    .text               mc_p.l(init.o)
    0x0800017c   0x00000048   Code   RO         1559    i.HAL_DMA_Abort_IT  stm32f0xx_hal_dma.o
    0x080001c4   0x0000001c   Code   RO          617    i.HAL_Delay         stm32f0xx_hal.o
    0x080001e0   0x0000013c   Code   RO         1669    i.HAL_GPIO_Init     stm32f0xx_hal_gpio.o
    0x0800031c   0x0000000c   Code   RO          621    i.HAL_GetTick       stm32f0xx_hal.o
    0x08000328   0x00000010   Code   RO          625    i.HAL_IncTick       stm32f0xx_hal.o
    0x08000338   0x00000020   Code   RO          626    i.HAL_Init          stm32f0xx_hal.o
    0x08000358   0x00000022   Code   RO          627    i.HAL_InitTick      stm32f0xx_hal.o
    0x0800037a   0x00000002   PAD
    0x0800037c   0x00000038   Code   RO          152    i.HAL_MspInit       stm32f0xx_hal_msp.o
    0x080003b4   0x00000014   Code   RO          749    i.HAL_NVIC_ClearPendingIRQ  stm32f0xx_hal_cortex.o
    0x080003c8   0x00000014   Code   RO          751    i.HAL_NVIC_EnableIRQ  stm32f0xx_hal_cortex.o
    0x080003dc   0x00000008   Code   RO          755    i.HAL_NVIC_SetPriority  stm32f0xx_hal_cortex.o
    0x080003e4   0x00000154   Code   RO         1267    i.HAL_RCC_ClockConfig  stm32f0xx_hal_rcc.o
    0x08000538   0x0000000c   Code   RO         1272    i.HAL_RCC_GetHCLKFreq  stm32f0xx_hal_rcc.o
    0x08000544   0x00000020   Code   RO         1274    i.HAL_RCC_GetPCLK1Freq  stm32f0xx_hal_rcc.o
    0x08000564   0x00000088   Code   RO         1275    i.HAL_RCC_GetSysClockFreq  stm32f0xx_hal_rcc.o
    0x080005ec   0x000003d8   Code   RO         1278    i.HAL_RCC_OscConfig  stm32f0xx_hal_rcc.o
    0x080009c4   0x00000018   Code   RO          757    i.HAL_SYSTICK_CLKSourceConfig  stm32f0xx_hal_cortex.o
    0x080009dc   0x00000002   Code   RO          758    i.HAL_SYSTICK_Callback  stm32f0xx_hal_cortex.o
    0x080009de   0x00000002   PAD
    0x080009e0   0x00000030   Code   RO          759    i.HAL_SYSTICK_Config  stm32f0xx_hal_cortex.o
    0x08000a10   0x00000008   Code   RO          760    i.HAL_SYSTICK_IRQHandler  stm32f0xx_hal_cortex.o
    0x08000a18   0x00000002   Code   RO         1415    i.HAL_UARTEx_WakeupCallback  stm32f0xx_hal_uart_ex.o
    0x08000a1a   0x00000002   Code   RO          948    i.HAL_UART_ErrorCallback  stm32f0xx_hal_uart.o
    0x08000a1c   0x00000134   Code   RO          951    i.HAL_UART_IRQHandler  stm32f0xx_hal_uart.o
    0x08000b50   0x0000006c   Code   RO          952    i.HAL_UART_Init     stm32f0xx_hal_uart.o
    0x08000bbc   0x00000058   Code   RO          154    i.HAL_UART_MspInit  stm32f0xx_hal_msp.o
    0x08000c14   0x00000100   Code   RO          955    i.HAL_UART_Receive  stm32f0xx_hal_uart.o
    0x08000d14   0x00000002   Code   RO          958    i.HAL_UART_RxCpltCallback  stm32f0xx_hal_uart.o
    0x08000d16   0x000000c8   Code   RO          960    i.HAL_UART_Transmit  stm32f0xx_hal_uart.o
    0x08000dde   0x00000002   Code   RO          963    i.HAL_UART_TxCpltCallback  stm32f0xx_hal_uart.o
    0x08000de0   0x00000002   Code   RO            3    i.HardFault_Handler  stm32f0xx_it.o
    0x08000de2   0x00000002   PAD
    0x08000de4   0x00000044   Code   RO          184    i.MX_USART2_UART_Init  main.o
    0x08000e28   0x00000314   Code   RO          292    i.ModbusMaster_ModbusMasterTransaction  modbus_master.o
    0x0800113c   0x00000014   Code   RO          294    i.ModbusMaster_begin  modbus_master.o
    0x08001150   0x00000018   Code   RO          298    i.ModbusMaster_getResponseBuffer  modbus_master.o
    0x08001168   0x00000018   Code   RO          303    i.ModbusMaster_readInputRegisters  modbus_master.o
    0x08001180   0x0000001c   Code   RO          472    i.Modbus_Master_GetByte  trans_recieve_buff_control.o
    0x0800119c   0x00000008   Code   RO          473    i.Modbus_Master_Millis  trans_recieve_buff_control.o
    0x080011a4   0x00000018   Code   RO          474    i.Modbus_Master_RB_Initialize  trans_recieve_buff_control.o
    0x080011bc   0x00000020   Code   RO          475    i.Modbus_Master_Read  trans_recieve_buff_control.o
    0x080011dc   0x00000028   Code   RO          476    i.Modbus_Master_Rece_Available  trans_recieve_buff_control.o
    0x08001204   0x00000010   Code   RO          477    i.Modbus_Master_Rece_Flush  trans_recieve_buff_control.o
    0x08001214   0x0000001c   Code   RO          478    i.Modbus_Master_Rece_Handler  trans_recieve_buff_control.o
    0x08001230   0x0000001c   Code   RO          479    i.Modbus_Master_Write  trans_recieve_buff_control.o
    0x0800124c   0x00000002   Code   RO            4    i.NMI_Handler       stm32f0xx_it.o
    0x0800124e   0x00000002   PAD
    0x08001250   0x00000044   Code   RO          761    i.NVIC_SetPriority  stm32f0xx_hal_cortex.o
    0x08001294   0x00000002   Code   RO            5    i.PendSV_Handler    stm32f0xx_it.o
    0x08001296   0x00000002   Code   RO            6    i.SVC_Handler       stm32f0xx_it.o
    0x08001298   0x0000000c   Code   RO            7    i.SysTick_Handler   stm32f0xx_it.o
    0x080012a4   0x0000005a   Code   RO          185    i.SystemClock_Config  main.o
    0x080012fe   0x00000002   PAD
    0x08001300   0x0000005c   Code   RO         2338    i.SystemInit        system_stm32f0xx.o
    0x0800135c   0x000000ca   Code   RO          965    i.UART_AdvFeatureConfig  stm32f0xx_hal_uart.o
    0x08001426   0x00000002   PAD
    0x08001428   0x00000068   Code   RO          966    i.UART_CheckIdleState  stm32f0xx_hal_uart.o
    0x08001490   0x00000014   Code   RO          967    i.UART_DMAAbortOnError  stm32f0xx_hal_uart.o
    0x080014a4   0x0000001e   Code   RO          977    i.UART_EndRxTransfer  stm32f0xx_hal_uart.o
    0x080014c2   0x0000001a   Code   RO          978    i.UART_EndTransmit_IT  stm32f0xx_hal_uart.o
    0x080014dc   0x0000007a   Code   RO          980    i.UART_Receive_IT   stm32f0xx_hal_uart.o
    0x08001556   0x00000002   PAD
    0x08001558   0x00000130   Code   RO          981    i.UART_SetConfig    stm32f0xx_hal_uart.o
    0x08001688   0x00000066   Code   RO          982    i.UART_Transmit_IT  stm32f0xx_hal_uart.o
    0x080016ee   0x00000062   Code   RO          983    i.UART_WaitOnFlagUntilTimeout  stm32f0xx_hal_uart.o
    0x08001750   0x00000024   Code   RO            8    i.USART2_IRQHandler  stm32f0xx_it.o
    0x08001774   0x0000001a   Code   RO          459    i.__ARM_common_switch8  modbus_master.o
    0x0800178e   0x0000000e   Code   RO         2396    i.__scatterload_copy  mc_p.l(handlers.o)
    0x0800179c   0x00000002   Code   RO         2397    i.__scatterload_null  mc_p.l(handlers.o)
    0x0800179e   0x0000000e   Code   RO         2398    i.__scatterload_zeroinit  mc_p.l(handlers.o)
    0x080017ac   0x00000020   Code   RO          316    i.crc16_update      modbus_master.o
    0x080017cc   0x00000054   Code   RO          187    i.main              main.o
    0x08001820   0x0000000c   Code   RO          233    i.rbClear           ringbuffer.o
    0x0800182c   0x00000010   Code   RO          235    i.rbInitialize      ringbuffer.o
    0x0800183c   0x00000010   Code   RO          236    i.rbIsEmpty         ringbuffer.o
    0x0800184c   0x00000022   Code   RO          238    i.rbPop             ringbuffer.o
    0x0800186e   0x00000024   Code   RO          239    i.rbPush            ringbuffer.o
    0x08001892   0x00000010   Data   RO         2339    .constdata          system_stm32f0xx.o
    0x080018a2   0x00000008   Data   RO         2340    .constdata          system_stm32f0xx.o
    0x080018aa   0x00000002   PAD
    0x080018ac   0x00000020   Data   RO         2394    Region$$Table       anon$$obj.o


    Execution Region RW_IRAM1 (Base: 0x20000000, Size: 0x00000668, Max: 0x00001800, ABSOLUTE)

    Base Addr    Size         Type   Attr      Idx    E Section Name        Object

    0x20000000   0x0000000e   Data   RW          318    .data               modbus_master.o
    0x2000000e   0x00000002   PAD
    0x20000010   0x00000004   Data   RW          632    .data               stm32f0xx_hal.o
    0x20000014   0x00000004   Data   RW         2341    .data               system_stm32f0xx.o
    0x20000018   0x00000070   Zero   RW          188    .bss                main.o
    0x20000088   0x00000100   Zero   RW          317    .bss                modbus_master.o
    0x20000188   0x000000dc   Zero   RW          480    .bss                trans_recieve_buff_control.o
    0x20000264   0x00000004   PAD
    0x20000268   0x00000400   Zero   RW          535    STACK               startup_stm32f042x6.o


==============================================================================

Image component sizes


      Code (inc. data)   RO Data    RW Data    ZI Data      Debug   Object Name

       242         14          0          0        112       2386   main.o
       914         46          0         14        256       7289   modbus_master.o
       114          0          0          0          0       3238   ringbuffer.o
        88         38        192          0       1024        604   startup_stm32f042x6.o
       122         18          0          4          0       3519   stm32f0xx_hal.o
       198         34          0          0          0      10882   stm32f0xx_hal_cortex.o
        72          0          0          0          0       1023   stm32f0xx_hal_dma.o
       316         22          0          0          0       1464   stm32f0xx_hal_gpio.o
       144         16          0          0          0       1401   stm32f0xx_hal_msp.o
      1504        102          0          0          0       4877   stm32f0xx_hal_rcc.o
      1886         42          0          0          0      11354   stm32f0xx_hal_uart.o
         2          0          0          0          0        960   stm32f0xx_hal_uart_ex.o
        56          6          0          0          0     418955   stm32f0xx_it.o
        92         14         24          4          0       1111   system_stm32f0xx.o
       204         40          0          0        220       5128   trans_recieve_buff_control.o

    ----------------------------------------------------------------------
      5968        392        250         24       1616     474191   Object Totals
         0          0         32          0          0          0   (incl. Generated)
        14          0          2          2          4          0   (incl. Padding)

    ----------------------------------------------------------------------

      Code (inc. data)   RO Data    RW Data    ZI Data      Debug   Library Member Name

         0          0          0          0          0          0   entry.o
         0          0          0          0          0          0   entry10a.o
         0          0          0          0          0          0   entry11a.o
         8          4          0          0          0          0   entry2.o
         4          0          0          0          0          0   entry5.o
         0          0          0          0          0          0   entry7b.o
         0          0          0          0          0          0   entry8b.o
         8          4          0          0          0          0   entry9a.o
        30          0          0          0          0          0   handlers.o
        36          8          0          0          0         68   init.o
        44          0          0          0          0         72   uidiv.o

    ----------------------------------------------------------------------
       130         16          0          0          0        140   Library Totals
         0          0          0          0          0          0   (incl. Padding)

    ----------------------------------------------------------------------

      Code (inc. data)   RO Data    RW Data    ZI Data      Debug   Library Name

       130         16          0          0          0        140   mc_p.l

    ----------------------------------------------------------------------
       130         16          0          0          0        140   Library Totals

    ----------------------------------------------------------------------

==============================================================================


      Code (inc. data)   RO Data    RW Data    ZI Data      Debug   

      6098        408        250         24       1616     471711   Grand Totals
      6098        408        250         24       1616     471711   ELF Image Totals
      6098        408        250         24          0          0   ROM Totals

==============================================================================

    Total RO  Size (Code + RO Data)                 6348 (   6.20kB)
    Total RW  Size (RW Data + ZI Data)              1640 (   1.60kB)
    Total ROM Size (Code + RO Data + RW Data)       6372 (   6.22kB)

==============================================================================

